:040000000C944B0011
:040048000C944901CA
:080074000C9403010C94C5017A
:14008C0000000000000000000000CFEFD0E1CDBFDEBFCE51A9
:1400A000D0400AEA08830024EAE0F1E01DE0EA30F10711F0EE
:1400B4000192FBCF0083ECE8F0E0A0E0B1E010E000E00BBF09
:1400C800E639F10721F0C89531960D92F9CF0E942D01FFCFD3
:1400DC000027112700000000000000000000000000000000B1
:1400F000000000000000000000000000000000000F5F1F4F20
:14010400003DE7E01E0754F30895AA92A02EA0929C00209052
:140118009B0025FEFCCFDEDFA99008954A935A93A80105C07F
:14012C00FA010081EEDF4F5F5F4FFA0120802220B9F75991A3
:14014000499108954A935A9318C044275527000000000000AB
:14015400000000000000000000000000000000000000000097
:140168000000000000004F5F5F4F483EE3E05E0754F3180119
:14017C0001501040222019F7332009F7599149910895222482
:140190002BBA2ABA28BA27BA25BA24BA22BA21BA23B822B8A6
:1401A4002092620020926100209265008FE180936400089585
:1401B800222420928A0082EC8093890087EF809388008DE326
:1401CC008093870089E0809386008DE38093850089E08093FF
:1401E00084008DE38093830089E0809382008DE3809381007F
:1401F40089E08093800020928B0085E080938A0008952A9263
:140208008A932FB62A9282EC8093890087EF8093880081E0A8
:14021C00809300012090650028262092650029902FBE899180
:1402300029901895F89422242CBE20926D00A7DF0E943C0114
:140244000E94B401222425BE20926A002ABE29BE27BE78944A
:140258000895289780E0888389838A838B8380E08C838D8325
:14026C008E838F83E1DFFFCF2896089522242AB82BB886E001
:140280008093950087E689B92092900088E98AB908950A92E4
:140294001A922A923A924A925A926A927A928A929A920A936D
:1402A8001A932A933A938A939A93AA93BA93EA93FA930FB668
:1402BC000A920E945C02ACB08AE099E0E0910601F091070152
:1402D000E80FF91FA0828091060190910701019690930701E6
:1402E400809306018AE099E0E0910601F0910701E80FF91FF9
:1402F80020802220E1F40AE019E0CAD04427552709C08AE0A4
:14030C0099E0FA01E80FF91F222420824F5F5F4F209006015F
:14032000309007014215530584F322243324309207012092C2
:1403340006010E94610209900FBEF991E991B991A991999191
:14034800899139912991199109919990899079906990599092
:14035C00499039902990199009901895222420929A002092FF
:140370009B0086E080939D0087E6809399002092980088E9F4
:1403840080939A0008950A921A922A923A924A925A926A9287
:140398007A928A929A920A931A932A933A938A939A93AA93A2
:1403AC00BA93EA93FA930FB60A920E945C02A0909C008AE04F
:1403C00095E0E0910801F0910901E80FF91FA0828091080164
:1403D40090910901019690930901809308018AE095E0E091BA
:1403E8000801F0910901E80FF91F20802220E1F40AE015E0C8
:1403FC0036D04427552709C08AE095E0FA01E80FF91F222408
:1404100020824F5F5F4F20900801309009014215530584F331
:140424002224332430920901209208010E94610209900FBE35
:14043800F991E991B991A9919991899139912991199109911C
:14044C009990899079906990599049903990299019900990D2
:1404600018950CB95D9BFECF08954A935A93A80105C0FA0181
:140474000081F5DF4F5F5F4FFA0120802220B9F75991499172
:14048800089500939C0020909B0025FEFCCF08954A935A93F4
:14049C00A80105C0FA010081F2DF4F5F5F4FFA012080222058
:1404B000B9F75991499108955A934A93BA92AA920895A990FF
:0804C400B99049915991089586
:00000001FF
