:040000000C94A500B7
:040048000C944403CD
:080074000C9429010C94F50322
:14008C000000000000000041540D0A002B2B2B006F6B005801
:1400A00058554E33574535443155373441524F003E00415463
:1400B4002B43495053454E440D0A0041542B4349504D4F4474
:1400C800453D310D0A0041542B43495053544152543D22547D
:1400DC004350222C227463702E746C696E6B2E696F222C38EA
:1400F0003634370D0A0041542B43574A41503D227A73633828
:140104003838222C223133363331313033220D0A004F4B00A2
:1401180041542B43574D4F44453D310D0A00726561647900BA
:14012C000000000000006F6B003230303035333139390032E6
:090140003030303533313938001C
:14014A00CFEFD0E1CDBFDEBFCE51D0400AEA08830024EDEB5F
:14015E00F1E01DE0ED3BF10711F00192FBCF0083ECE8F0E01A
:14017200A0E0B1E011E000E00BBFE934F10721F0C895319683
:140186000D92F9CF0E940103FFCF4A935A9318C04427552701
:14019A00000000000000000000000000000000000000000051
:1401AE000000000000000000000000004F5F5F4F483EE3E098
:1401C2005E0754F3180101501040222019F7332009F7599134
:1401D6004991089522242BBA2ABA28BA27BA25BA24BA22BA33
:1401EA0021BA23B822B82092620020926100209265008FE1C3
:1401FE00809364000895222420928A008BE0809389008CEDD7
:140212008093880084EF8093870084E28093860084EF8093AB
:14022600850084E28093840084EF8093830084E2809382003E
:14023A0084EF8093810084E28093800020928B0084E08093FC
:14024E008A0008952A928A939A932FB62A928BE080938900C7
:140262008CED8093880081E080930101809104018F5F282EA4
:140276002092040185E0821530F481E080930201222420922E
:14028A00040129902FBE9991899129901895F89422242CBE4F
:14029E0020926D009BDF0E9426030E943303ABDF222425BE5D
:1402B20020926A002ABE29BE27BE84E080937D0078940895CB
:1402C6004A935A934427552707C0FA01E00FF11F22242082CA
:1402DA004F5F5F4F4C3FE3E05E07A8F35991499108950E9463
:1402EE003B054091050155274030450749F14130E0E05E07DD
:1403020009F44AC04230E0E05E0709F46BC04330E0E05E0789
:1403160009F48DC04430E0E05E0709F4AFC04530E0E05E07EA
:14032A0009F4D1C04630E0E05E0709F4F9C04730E0E05E0744
:14033E0009F421C14830E0E05E0709F434C157C1809106010D
:140352008F5F809306012AE931E00DEB15E00E942505003082
:14036600010709F448C10DEB15E00E94FE040DEB15E0A6DF72
:14037A0022242092060133243092A3012092A2010CE811E079
:14038E000E94150581E08093050131C1809106018F5F80931A
:1403A200060129E831E00DEB15E00E9425050030010709F430
:1403B60022C10DEB15E00E94FE040DEB15E080DF222420927B
:1403CA00060133243092A3012092A2010AE611E00E94150569
:1403DE0082E0809305010BC1809106018F5F8093060129E893
:1403F20031E00DEB15E00E94250558010030010709F4FBC0E4
:140406000DEB15E00E94FE040DEB15E059DF2224209206012D
:14041A0033243092A3012092A20102E411E00E94150583E0C6
:14042E0080930501E4C0809106018F5F8093060129E831E0BB
:140442000DEB15E00E94250558010030010709F4D4C00DEBD3
:1404560015E00E94FE040DEB15E032DF2224209206013324A5
:14046A003092A3012092A20103E311E00E94150584E08093B9
:14047E000501BDC0809106018F5F8093060129E831E00DEBAD
:1404920015E00E94250558010030010709F4ADC00DEB15E0AD
:1404A6000E94FE040DEB15E00BDF22242092060133243092AF
:1404BA00A3012092A20106E211E00E94150585E08093050122
:1404CE0096C0809106018F5F8093060124E231E00DEB15E0A0
:1404E2000E94250558010030010709F486C00DEB15E00E94D7
:1404F600FE040DEB15E0E4DE22242092060133243092A30185
:14050A002092A20103E111E00E94150586E08093050181E017
:14051E008093030122242092020169C0809106018F5F809375
:14053200060120E131E00DEB15E00E94250558010030010752
:1405460079F00DEB15E00E94FE040DEB15E0B8DE222420922C
:14055A00060133243092A3012092A2018EE1209006018215B7
:14056E0008F045C087E0809305012224209203012092060147
:140582003CC00DEB15E09EDE222433243092A3012092A201A8
:140596000CE011E00E94150500ED17E0F6DD07E011E00E9487
:1405AA00150588E08093050124C029E831E00DEB15E00E940D
:1405BE002505580100300107B9F00DEB15E00E94FE040DEB3C
:1405D20015E078DE22242092060133243092A3012092A201B9
:1405E6000CE811E00E94150581E08093050103C087E08093A9
:1405FA00050101E00C9440054ADE21C080910101813071F4EF
:14060E006EDE80910301813031F481E020906500282620922B
:14062200650022242092010180910201813059F4809103013E
:14063600813039F40DEB11E00E941505222420920201DECF85
:14064A00089522242AB82BB886E08093950087E689B9209285
:14065E00900088E98AB90895222420929A0020929B0086E062
:1406720080939D0087E6809399002092980088E980939A0043
:1406860008952A923A920A931A932A933A938A939A93AA93E0
:14069A00EA93FA932FB62A920CB180910301813009F090C0D5
:1406AE002091A40133272030230729F02130E0E03E0771F03E
:1406C20085C00B3509F082C081E08093A401222433243092EC
:1406D600A1012092A00178C08DEB99E0E091A001F091A101BD
:1406EA00E80FF91F00838091A0019091A10101969093A10199
:1406FE008093A0018DEB99E0E091A001F091A1013197E80F4F
:14071200F91F80818D3509F059C08DEB99E0E091A001F09162
:14072600A1013197E80FF91F22242082002711270EC08DEBB9
:14073A0099E0F801E80FF91F20808DEB91E0F801E80FF91F99
:14074E0020820F5F1F4F8091A0019091A101039780179107DB
:1407620050F78DEB99E0E091A001F091A1013297E80FF91F3E
:140776008081813319F481E0809302018DEB91E0E091A0013B
:14078A00F091A1013297E80FF91F222420820027112709C050
:14079E008DEB99E0F801E80FF91F222420820F5F1F4F2090DA
:1407B200A0013090A1012016310680F7222433243092A1014B
:1407C6002092A0012092A40129902FBEF991E991A991999167
:1407DA00899139912991199109913990299018950A921A92B2
:1407EE002A923A924A925A926A927A928A929A920A931A930D
:140802002A933A938A939A93AA93BA93EA93FA930FB60A9219
:140816000E94450540919C0080910301813009F0ADC0609158
:14082A00A50177276030670729F06130E0E07E0771F0B4C0B4
:14083E004B3509F0B1C081E08093A501222433243092A3019F
:140852002092A201A7C08DEB95E0E091A201F091A301E80FB9
:14086600F91F40838091A2019091A30101969093A3018093B9
:14087A00A2018DEB95E0E091A201F091A3013197E80FF91FCA
:14088E0080818D3509F088C08DEB95E0E091A201F091A3012C
:1408A2003197E80FF91F222420820DEB15E0A5D023EB31E002
:1408B6000DEB15E00E942505B8010030010791F0FB01A588DA
:1408CA008A2D813329F4809165008460809365008A2D803356
:1408DE0029F4809165008B7F8093650029EA31E00DEB15E0E0
:1408F2000E942505B8010030010791F0FB01A5888A2D813320
:1409060029F4809165008860809365008A2D803329F4809152
:14091A006500877F8093650026EA31E00DEB15E00E9425050C
:14092E005801B5010030010721F022242092A50133C0222486
:1409420020920201209204016627772709C08DEB95E0FB0158
:14095600E80FF91F222420826F5F7F4F2090A2013090A30143
:14096A006215730580F3222433243092A3012092A20120920D
:14097E00A50112C08DEB95E0E091A201F091A301E80FF91FB8
:1409920040838091A2019091A30101969093A3018093A20101
:1409A6008091A2019091A301883EE3E09E0731F422243324D4
:1409BA003092A3012092A2010E944C0509900FBEF991E99111
:1409CE00B991A9919991899139912991199109919990899043
:1409E2007990699059904990399029901990099018950CB907
:1409F6005D9BFECF08954A935A93A80105C0FA010081F5DF03
:140A0A004F5F5F4FFA0120802220B9F75991499108950093FB
:140A1E009C0020909B0025FEFCCF08954A935A93A80105C01A
:140A3200FA010081F2DF4F5F5F4FFA0120802220B9F7599190
:140A460049910895E22FF32FA02FB12F0080002049F03196A3
:140A5A001D90112041F01014B9F30F5F1F4FF0CFE217F3071B
:140A6E0011F400E010E008955A934A93BA92AA920895A990DA
:140A8200B9904991599108957A936A935A934A93BA92AA925A
:100A96000895A990B99049915991699179910895CC
:00000001FF
